:020000040000FA
:10000000580100206D020000810200008302000000
:10001000850200008502000085020000000000004B
:100020000000000000000000000000008502000049
:10003000850200000000000085020000850200002B
:100040008502000085020000850200008502000094
:100050008502000085020000850200008502000084
:100060008502000085020000850200008502000074
:100070008502000085020000850200008502000064
:100080008502000085020000850200008502000054
:100090008502000085020000850200008502000044
:1000A0008502000085020000850200008502000034
:1000B0008502000085020000850200008502000024
:1000C0008502000085020000850200008502000014
:1000D0008502000085020000850200008502000004
:1000E0008502000000000000000000008502000002
:1000F00085020000850200008502000085020000E4
:1001000085020000850200008502000085020000D3
:1001100000000000000000008502000085020000D1
:1001200085020000850200008502000085020000B3
:1001300085020000850200008502000085020000A3
:1001400000000000000000000000000000000000AF
:100150008502000085020000850200008502000083
:10016000000000000000000000000000000000008F
:10017000000000000000000000000000000000007F
:10018000000000000000000000000000000000006F
:10019000000000000000000000000000000000005F
:1001A000000000000000000000000000000000004F
:1001B0008502000085020000850200008502000023
:1001C0008502000085020000850200008502000013
:1001D0008502000085020000850200008502000003
:1001E000850200008502000085020000000000007A
:1001F000000000008502000085020000850200006A
:1002000085020000850200000000000000000000E0
:1002100085020000850200008502000085020000C2
:1002200085020000850200008502000085020000B2
:1002300085020000850200008502000085020000A2
:100240008502000085020000850200008502000092
:100250008502000085020000850200008502000082
:100260008502000085020000850200004EF68850DD
:10027000CEF20000016841F47001016000F004B8A2
:10028000FEE7FEE7FEE70000DFF80CD000F00AF81A
:100290000048004725100000580100200138FDD11A
:1002A00070470000064C074D06E0E06840F001038F
:1002B00094E8070098471034AC42F6D3FFF7E8FF04
:1002C000E4120000041300000068C0F3004070470F
:1002D0000A4601F00F0101236FF30F0203FA01F147
:1002E0001143826A114381627047000010B59E4835
:1002F000846824B1B4F5007F01D200F0A9FBB4F505
:10030000007F0BD940F2EE20844207D200F0BAFC05
:100310000F220821954800F0D9FA04E000220821B4
:10032000924800F0D3FA40F2EE2084420AD9B4F5A4
:10033000777F07D200F0BEFC0F2204218B4800F02B
:10034000C5FA04E000220421884800F0BFFAB4F5A1
:10035000777F0BD940F2CA40844207D200F0C2FC3A
:100360000F220221814800F0B1FA04E000220221AC
:100370007E4800F0ABFA40F2CA4084420AD9B4F594
:10038000B76F07D200F0C6FC0F220221774800F0B9
:100390009DFA04E000220221744800F097FAB4F5B7
:1003A000B76F0BD940F2A660844207D200F062FB1F
:1003B0000F2202216D4800F089FA04E00022022198
:1003C0006A4800F083FA40F2A66084420BD940F2FA
:1003D0009470844207D200F065FB0F22022163482B
:1003E00000F074FA04E000220221604800F06EFA86
:1003F00040F2947084420BD940F68200844207D2C6
:1004000000F068FB0F220221584800F05FFA04E078
:1004100000220221554800F059FA40F68200844239
:100420000AD9B4F5176F07D200F06CFB0F22022136
:100430004E4800F04BFA04E0002202214B4800F045
:1004400045FAB4F5176F0BD940F65E20844207D207
:1004500000F070FB0F220221444800F037FA04E05C
:1004600000220221414800F031FA40F65E20844229
:100470000BD940F64C30844207D200F073FB0F22B8
:1004800002213A4800F022FA04E000220221374813
:1004900000F01CFA40F64C3084420BD940F63A404A
:1004A000844207D200F076FB0F2202212F4800F091
:1004B0000DFA04E0002202212C4800F007FA40F671
:1004C0003A4084420BD940F62850844207D200F0CB
:1004D00079FB0F220221254800F0F8F904E0002200
:1004E0000221224800F0F2F940F6285084420BD94C
:1004F00040F61660844207D200F07CFB0F220221F6
:100500001A4800F0E3F904E000220221174800F045
:10051000DDF940F6166084420BD940F6047084423F
:1005200007D200F07FFB0F220221104800F0CEF925
:1005300004E0002202210D4800F0C8F940F60470E2
:1005400084420BD940F6FF70844207D200F082FB50
:100550000F220221054800F0B9F904E0002202212F
:10056000024800F0B3F910BD040000200050024022
:10057000826B22F0030211438163704730B44469F7
:1005800089004FF00F0C0CFA01FC02F00F0524EA71
:100590000C048D402C434461046A03F0030324EAF5
:1005A0000C0C03FA01F14CEA0101016202F00F01A7
:1005B0008B1F032B84BF30BC7047C900C3694FF049
:1005C000300C30390CFA01FC02F0300223EA0C0343
:1005D00002FA01F11943C16130BC704700EB4110D0
:1005E00000F14001002003E08B6842F8043B401C0E
:1005F000CB6813F4807F18BF70470828F4D3704786
:100600000268012303FA01F122EA01010160704747
:100610000268012303FA01F111430160704710B42D
:1006200000EB4110910050F840CF0F228A4003F0B8
:100630000F042CEA020C8C404CEA040CC0F800C0F9
:10064000D0F818C0C3F303242CEA020C8C404CEA07
:10065000040CC0F818C0D0F804C0C3F303142CEA8B
:10066000020C8C404CEA040CC0F804C0D0F81CC04A
:10067000C3F303542CEA020C8C404CEA040CC0F87F
:100680001CC013F4702F4FF001040DD0D0F814C02B
:10069000C3F302432CEA02028B401A43426102690F
:1006A00004FA01F1114304E0026904FA01F122EABB
:1006B0000101016110BC7047D0F8003412F0010F45
:1006C00014BF0B438B43C0F8003412F0020FD0F874
:1006D000202414BF114322EA0101C0F820147047FE
:1006E0002DE9F00301264FF0000C0325C2F341175A
:1006F00006FA0CF40C4211D0D0F8C48F4FEA4C0427
:1007000005FA04F928EA0908C0F8C48FD0F8C48FA4
:1007100007FA04F448EA0404C0F8C44F0CF1010CD1
:100720000CF0FF0CBCF1080FE2D3D0F800C512F0BA
:10073000010F14BF4CEA010C2CEA010CC0F800C5F3
:10074000D0F804C512F0020F14BF4CEA010C2CEAD9
:10075000010CC0F804C5D0F808C512F0040F14BF8E
:100760004CEA010C2CEA010CC0F808C5D0F818C5F9
:1007700012F0080F14BF4CEA010C2CEA010CC0F86F
:1007800018C512F0100FD0F83C2514BF0A438A4355
:10079000C0F83C25D0F80C2513F0010F14BF0A4314
:1007A0008A43C0F80C25D0F8102513F0020F14BFAF
:1007B0000A438A43C0F81025D0F8142513F0040F1B
:1007C00014BF0A438A43C0F81425D0F81C2513F03F
:1007D000080F14BF0A438A43C0F81C25D0F84425EB
:1007E00013F4007F14BF0A438A43C0F84425D0F8AD
:1007F000402513F4407F14BF0A438A43C0F84025C4
:10080000D0F82825002B0CBF114322EA0101C0F8C3
:100810002815BDE8F00370470E4AC0F30741D26EB9
:1008200001238B401A420C4A1ABF02EBC1014968EE
:1008300052F83110020AD1F82C354FF00F0C0CFA97
:1008400002FC00F00F0023EA0C0390401843C1F8AB
:100850002C05704700E00F405412000030B50C46E4
:1008600005460022FFF728FF21462846BDE8304014
:1008700000230122FFF734BF30B50C4605460022A5
:10088000FFF71AFF21462846BDE830400823012221
:10089000FFF726BF30B50C46054608230122FFF7B7
:1008A0001FFF21462846BDE830400122FFF704BF64
:1008B00030B50C4605460222FFF7FEFE21462846CB
:1008C000BDE8304008230122FFF70ABF40F821208D
:1008D0007047000010B51A4800F04CFB1848401E45
:1008E00000F048FB1648401F00F044FB0221154869
:1008F000FFF7D0FF04211348FFF7CCFF0821114870
:10090000FFF7C8FF01210F48FFF7B6FF10210D4880
:10091000FFF7B2FF0C480D4908600120091D08606F
:100920000020091F0860002211210648FFF7C4FEBD
:100930000A23012211210348FFF7D2FE10BD000057
:10094000050800F0005002404B434F4C2055024038
:10095000084401686FF352011143016012F0020F65
:1009600014BFB0218C21016214BF4FF4306140F6F6
:100970000C0141627047425842F0010242507047F8
:100980000844016811F0020F14BF5108511E0161A3
:100990007047002A826814BF114322EA0101816076
:1009A000704721F03F031844036813F0020F18BF8B
:1009B000520803699A1A11F0010F14BFC2618261D3
:1009C000704700001A49086830B140F2333188425C
:1009D00002D20121174A1160B0F54D7F06D340F2D3
:1009E0006661884202D20221124A116040F26661B9
:1009F000884206D940F69911884202D204210D4A54
:100A0000116040F69911884206D940F602418842A9
:100A100002D20621074A116040F60241884206D9F7
:100A200040F6FF71884202D20821024A11607047E5
:100A30000400002000000020044A5168B1F5E06F76
:100A400001D9014600E000BF70470000040000200B
:100A500010B5054AC0210548FFF792FF044AC52199
:100A60000248FFF79EFF10BD90D0030000800240B7
:100A700048E8010010B540F66412C0210748FFF7AE
:100A80007FFF0748006840F66411B1FBF0F422468E
:100A9000C5210248FFF785FF10BD0000008002401D
:100AA0000000002010B54FF40E62C0210748FFF788
:100AB00067FF074800684FF40E61B1FBF0F422466F
:100AC000C5210248FFF76DFF10BD00000080024005
:100AD0000000002010B540F65802C0210748FFF77B
:100AE0004FFF0748006840F65801B1FBF0F422467A
:100AF000C5210248FFF755FF10BD000000800240ED
:100B00000000002010B54FF4FE62C0210748FFF737
:100B100037FF074800684FF4FE61B1FBF0F422464E
:100B2000C5210248FFF73DFF10BD000000800240D4
:100B30000000002010B540F27472C0210748FFF792
:100B40001FFF0748006840F27471B1FBF0F42246C1
:100B5000C5210248FFF725FF10BD000000800240BC
:100B60000000002010B540F20672C0210748FFF7D0
:100B700007FF0748006840F20671B1FBF0F4224617
:100B8000C5210248FFF70DFF10BD000000800240A4
:100B90000000002010B540F2A462C0210748FFF712
:100BA000EFFE0748006840F2A461B1FBF0F4224672
:100BB000C5210248FFF7F5FE10BD0000008002408D
:100BC0000000002010B540F24262C0210748FFF744
:100BD000D7FE0748006840F24261B1FBF0F42246BC
:100BE000C5210248FFF7DDFE10BD00000080024075
:100BF0000000002010B540F2EC52C0210748FFF77A
:100C0000BFFE0748006840F2EC51B1FBF0F4224609
:100C1000C5210248FFF7C5FE10BD0000008002405C
:100C20000000002010B540F29452C0210748FFF7A1
:100C3000A7FE0748006840F29451B1FBF0F4224649
:100C4000C5210248FFF7ADFE10BD00000080024044
:100C50000000002010B54FF4A962C0210748FFF73B
:100C60008FFE074800684FF4A961B1FBF0F42246FB
:100C7000C5210248FFF795FE10BD0000008002402C
:100C80000000002010B540F6E832C0210748FFF709
:100C900077FE0748006840F6E831B1FBF0F42246E1
:100CA000C5210248FFF77DFE10BD00000080024014
:100CB0000000002010B540F63A32C0210748FFF787
:100CC0005FFE0748006840F63A31B1FBF0F4224677
:100CD000C5210248FFF765FE10BD000000800240FC
:100CE0000000002010B540F69E22C0210748FFF703
:100CF00047FE0748006840F69E21B1FBF0F422460B
:100D0000C5210248FFF74DFE10BD000000800240E3
:100D10000000002010B540F6F812C0210748FFF788
:100D20002FFE0748006840F6F811B1FBF0F42246A8
:100D3000C5210248FFF735FE10BD000000800240CB
:100D40000000002010B500F039F81A4800F012F940
:100D500000BF184800F022F90028FAD000211648F8
:100D6000FFF706FC00211448FFF74AFC00231A464F
:100D700019461148FFF702FC0923002211460E48CC
:100D8000FFF74DFC01231A4600210B48FFF747FCF3
:100D90002223022200210848FFF741FC00BF00BFC8
:100DA00000BF00210448FFF733FC00BF00BF00BFB5
:100DB00010BD0000003800F00080034010B5022193
:100DC0000548FFF74BFD04210348FFF747FD1021BD
:100DD0000148FFF743FD10BD0040024010B54FF43D
:100DE000D01000F0BDF8114800F0C4F8104800F031
:100DF000C1F800BF0E4800F0D1F80028FAD00D4825
:100E0000FFF70AFD20210C48FFF752FD0022C02108
:100E10000A48FFF79DFDC0210848FFF7ACFD0122FD
:100E200020210648FFF7B5FD10BD0000040800F0C2
:100E3000004000F004140400004002400080024022
:100E4000434B30B4196E1A6F21F4800141F40061F4
:100E500042F4006419661C6721EA000212F0010FD7
:100E600014D060F0010211409A159A651966D3F802
:100E700050C0D2021CF4807F08D1521E04BF30BC87
:100E80007047D3F850C01CF4807FF6D021F4FE6187
:100E900000F4FE621143DFF8BCC024F0700222F0BF
:100EA000004200EA0C0C4CEA020200F0080C42EA94
:100EB000CC0219661A6700F4005C21F4005122F498
:100EC00000524CEA01014CEA02024FF0400CC3F818
:100ED00058C012F0004F08BF19661A6718BF19668C
:100EE00021F00101DFF870C021F0F86100EA0C0C7C
:100EF0004CEA010122F0FC5200F0FC5C4CEA0202D8
:100F000010F0804F08BF22F0804209D0DFF84CC0BB
:100F100022F4800200EA0C0C41F480014CEA020247
:100F200010F4006F08BF4FF400400AD1D3F868C135
:100F30001CF0010F01D1401EF8D121F4006122F410
:100F4000006219661A6730BC1020FFF7A7B90000CD
:100F500000E00F40300000800100C007000040406A
:100F600003490A6E22F4F01210430866704700002D
:100F700000E00F40C0F307230749C0B2194401F055
:100F80007043C1F3130143EA411141EA800040F08C
:100F9000007001220260704700E60F40C0F3072294
:100FA0000849C0B2114401F07042C1F3130142EA92
:100FB000411141EA800040F000700068002818BF2D
:100FC0000120704700EA0F40C0F307230C49C0B26C
:100FD000194401F07043C1F3130143EA411141EA9E
:100FE000800040F0007181B001220A60002200926E
:100FF0000098401C00901028FAD30A6001B0704796
:1010000000E50F4002E008C8121F08C1002AFAD10B
:1010100070477047002001E001C1121F002AFBD178
:10102000704700001048FFF70BFF1048FFF7A2FFC2
:101030000E48FFF7C9FFFFF74DFCFFF7BFFEFFF7B4
:1010400081FEFFF7CBFE00BF0948FFF7A7FF00288E
:10105000FAD007E000F00EF8FFF7EEFCFFF746F9D4
:10106000FFF7B0FCF6E70000403D8007003800F0D5
:10107000040800F010B500210D48FFF729F900BF62
:101080000B48FFF721F90028FAD10A4A0021084845
:10109000FFF7A4FA0446032C09D106480068064964
:1010A000086004484068486002488068886010BD55
:1010B0000080034004000020240000200040004085
:1010C00010000000008005401000000000500040AB
:1010D0001100000000900540110000000060004079
:1010E0001200000000A00540120000000070004047
:1010F0001300000000B00540130000000040024053
:101100001400000000C00540140000000050024020
:101110002E00000000D005402E00000000600240BC
:101120002F00000000E005402F000000007002408A
:101130003000000000F005403000000000D0034007
:101140004600000000000640460000000010064077
:101150004700000000200640480000000030064024
:101160007F00000000400640800000000050064064
:1011700084000000006006408C0000000040004039
:1011800010000000008005401000000000500040EA
:1011900011000000009005401100000000600040B8
:1011A0001200000000A00540120000000070004086
:1011B0001300000000B00540130000000040024092
:1011C0001400000000C00540140000000050024060
:1011D0002E00000000D005402E00000000600240FC
:1011E0002F00000000E005402F00000000700240CA
:1011F0003000000000F005403000000000D0034047
:1012000043000000000006404300000000100640BC
:101210004400000000200640450000000030064069
:1012200058000000004006405900000000500640F1
:101230005C00000000600640640000000070064092
:101240006C000000008006406D0000000090064029
:101250007F0000000040004000800540005000403A
:10126000009005400060004000A005400070004074
:1012700000B005400040024000C005400050024060
:1012800000D005400060024000E0054000700240D0
:1012900000F0054000D0034000000640001006406A
:1012A00000100640002006400020064000300640A6
:1012B0000030064000400640004006400050064016
:1012C0000050064000600640006006400070064086
:1012D00000700640008006400080064000900640F6
:1012E00000900640041300000000002004000000ED
:1012F0000410000008130000040000205401000046
:081300001410000000000000C1
:040000050000026D88
:00000001FF
