:020000040000FA
:10000000080100206D020000810200008302000050
:10001000850200008502000085020000000000004B
:100020000000000000000000000000008502000049
:10003000850200000000000085020000850200002B
:100040008502000085020000850200008502000094
:100050008502000085020000850200008502000084
:100060008502000085020000850200008502000074
:100070008502000085020000850200008502000064
:100080008502000085020000850200008502000054
:100090008502000085020000850200008502000044
:1000A0008502000085020000850200008502000034
:1000B0008502000085020000850200008502000024
:1000C0008502000085020000850200008502000014
:1000D0008502000085020000850200008502000004
:1000E0008502000000000000000000008502000002
:1000F00085020000850200008502000085020000E4
:1001000085020000850200008502000085020000D3
:1001100000000000000000008502000085020000D1
:1001200085020000850200008502000085020000B3
:1001300085020000850200008502000085020000A3
:1001400000000000000000000000000000000000AF
:100150008502000085020000850200008502000083
:10016000000000000000000000000000000000008F
:10017000000000000000000000000000000000007F
:10018000000000000000000000000000000000006F
:10019000000000000000000000000000000000005F
:1001A000000000000000000000000000000000004F
:1001B0008502000085020000850200008502000023
:1001C0008502000085020000850200008502000013
:1001D0008502000085020000850200008502000003
:1001E000850200008502000085020000000000007A
:1001F000000000008502000085020000850200006A
:1002000085020000850200000000000000000000E0
:1002100085020000850200008502000085020000C2
:1002200085020000850200008502000085020000B2
:1002300085020000850200008502000085020000A2
:100240008502000085020000850200008502000092
:100250008502000085020000850200008502000082
:100260008502000085020000850200004EF68850DD
:10027000CEF20000016841F47001016000F004B8A2
:10028000FEE7FEE7FEE70000DFF80CD000F00AF81A
:100290000048004785090000080100200138FDD111
:1002A00070470000064C074D06E0E06840F001038F
:1002B00094E8070098471034AC42F6D3FFF7E8FF04
:1002C000E80B0000080C00000068C0F30040704715
:1002D0000A4601F00F0101236FF30F0203FA01F147
:1002E0001143826A114381627047000010B50D4CC2
:1002F00000212046FFF7ECFF2046FFF7E5FF00282E
:10030000FAD1094A0021204600F046F840F6A9211A
:10031000A0F25650884203D2BDE8104000F0D2B996
:1003200010BD00000080034000000020826B22F01E
:10033000030211438163704730B4446989004FF070
:100340000F0C0CFA01FC02F00F0524EA0C048D409E
:100350002C434461046A03F0030324EA0C0C03FAFF
:1003600001F14CEA0101016202F00F018B1F032B26
:1003700084BF30BC7047C900C3694FF0300C3039BE
:100380000CFA01FC02F0300223EA0C0302FA01F13C
:100390001943C16130BC704700EB411000F14001CE
:1003A000002003E08B6842F8043B401CCB6813F448
:1003B000807F18BF70470828F4D370470268012374
:1003C00003FA01F122EA010101607047026801238A
:1003D00003FA01F111430160704710B400EB4110C2
:1003E000910050F840CF0F228A4003F00F042CEA0E
:1003F000020C8C404CEA040CC0F800C0D0F818C0C5
:10040000C3F303242CEA020C8C404CEA040CC0F821
:1004100018C0D0F804C0C3F303142CEA020C8C40BB
:100420004CEA040CC0F804C0D0F81CC0C3F3035459
:100430002CEA020C8C404CEA040CC0F81CC013F4EB
:10044000702F4FF001040DD0D0F814C0C3F3024355
:100450002CEA02028B401A434261026904FA01F15C
:10046000114304E0026904FA01F122EA0101016189
:1004700010BC7047D0F8003412F0010F14BF0B43CA
:100480008B43C0F8003412F0020FD0F8202414BFC0
:10049000114322EA0101C0F8201470472DE9F0034E
:1004A00001264FF0000C0325C2F3411706FA0CF4A5
:1004B0000C4211D0D0F8C48F4FEA4C0405FA04F96D
:1004C00028EA0908C0F8C48FD0F8C48F07FA04F4EA
:1004D00048EA0404C0F8C44F0CF1010C0CF0FF0C06
:1004E000BCF1080FE2D3D0F800C512F0010F14BF21
:1004F0004CEA010C2CEA010CC0F800C5D0F804C588
:1005000012F0020F14BF4CEA010C2CEA010CC0F8E7
:1005100004C5D0F808C512F0040F14BF4CEA010C52
:100520002CEA010CC0F808C5D0F818C512F0080F65
:1005300014BF4CEA010C2CEA010CC0F818C512F0EB
:10054000100FD0F83C2514BF0A438A43C0F83C255D
:10055000D0F80C2513F0010F14BF0A438A43C0F8EA
:100560000C25D0F8102513F0020F14BF0A438A435C
:10057000C0F81025D0F8142513F0040F14BF0A4357
:100580008A43C0F81425D0F81C2513F0080F14BFB7
:100590000A438A43C0F81C25D0F8442513F4007F91
:1005A00014BF0A438A43C0F84425D0F8402513F409
:1005B000407F14BF0A438A43C0F84025D0F828255D
:1005C000002B0CBF114322EA0101C0F82815BDE839
:1005D000F00370470E4AC0F30741D26E01238B40EF
:1005E0001A420C4A1ABF02EBC101496852F8311095
:1005F000020AD1F82C354FF00F0C0CFA02FC00F077
:100600000F0023EA0C0390401843C1F82C057047F3
:1006100000E00F40580B000030B50C4605460022A4
:10062000FFF728FF21462846BDE83040002301227D
:10063000FFF734BF30B50C4605460222FFF71AFF1C
:1006400021462846BDE8304008230122FFF726BF97
:10065000084401686FF352011143016012F0020F68
:1006600014BFB0218C21016214BF4FF4306140F6F9
:100670000C0141627047425842F0010242507047FB
:100680000844016811F0020F14BF5108511E0161A6
:100690007047002A826814BF114322EA0101816079
:1006A000704721F03F031844036813F0020F18BF8E
:1006B000520803699A1A11F0010F14BFC2618261D6
:1006C0007047000010B5002000F0FAF8164800F05E
:1006D00001F9164C204600F0FDF8204600F00EF916
:1006E0000028FAD01248FFF775FF20211148FFF7C4
:1006F000A1FF114C0022C0212046FFF7A9FFC8220C
:10070000C0212046FFF7BCFF6422C5212046FFF729
:10071000C8FFC0212046FFF7AEFF20460122BDE8FA
:1007200010402021FFF7B5BF040800F0004000F0A2
:1007300004140400004002400080024010B500F0A4
:1007400029F8124C204600F0C5F8204600F0D6F8F3
:100750000028FAD00E4C00212046FFF7E7FD0021CB
:100760002046FFF72BFE00231A4619462046FFF7C6
:10077000E3FD0022202311462046FFF72EFE2046EF
:10078000BDE810400021FFF721BE0000003800F056
:100790000080034002210148FFF73EBF00400240B5
:1007A000434B30B4196E1A6F21F4800141F400619B
:1007B00042F4006419661C6721EA000212F0010F7E
:1007C00014D060F0010211409A159A651966D3F8A9
:1007D00050C0D2021CF4807F08D1521E04BF30BC2E
:1007E0007047D3F850C01CF4807FF6D021F4FE612E
:1007F00000F4FE621143DFF8BCC024F0700222F066
:10080000004200EA0C0C4CEA020200F0080C42EA3A
:10081000CC0219661A6700F4005C21F4005122F43E
:1008200000524CEA01014CEA02024FF0400CC3F8BE
:1008300058C012F0004F08BF19661A6718BF196632
:1008400021F00101DFF870C021F0F86100EA0C0C22
:100850004CEA010122F0FC5200F0FC5C4CEA02027E
:1008600010F0804F08BF22F0804209D0DFF84CC062
:1008700022F4800200EA0C0C41F480014CEA0202EE
:1008800010F4006F08BF4FF400400AD1D3F868C1DC
:100890001CF0010F01D1401EF8D121F4006122F4B7
:1008A000006219661A6730BC1020FFF7F7BC000021
:1008B00000E00F40300000800100C0070000404011
:1008C00003490A6E22F4F0121043086670470000D4
:1008D00000E00F40C0F307230749C0B2194401F0FC
:1008E0007043C1F3130143EA411141EA800040F033
:1008F000007001220260704700E60F40C0F307223B
:100900000849C0B2114401F07042C1F3130142EA38
:10091000411141EA800040F000700068002818BFD3
:100920000120704700EA0F40C0F307230C49C0B212
:10093000194401F07043C1F3130143EA411141EA44
:10094000800040F0007181B001220A600022009214
:100950000098401C00901028FAD30A6001B070473C
:1009600000E50F4002E008C8121F08C1002AFAD1B2
:1009700070477047002001E001C1121F002AFBD11F
:10098000704700000B48FFF70BFF0B4C2046FFF7AA
:10099000A1FF2046FFF7C8FF084C2046FFF7AEFF37
:1009A0000028FAD0FFF7F6FEFFF7C8FEFFF79EFC1F
:1009B000FCE70000403D8007003800F0040800F02C
:1009C00000400040100000000080054010000000C2
:1009D0000050004011000000009005401100000090
:1009E000006000401200000000A00540120000005E
:1009F000007000401300000000B00540130000002C
:100A0000004002401400000000C005401400000037
:100A1000005002402E00000000D005402E000000D3
:100A2000006002402F00000000E005402F000000A1
:100A3000007002403000000000F00540300000006F
:100A400000D00340460000000000064046000000C1
:100A5000001006404700000000200640480000004B
:100A6000003006407F00000000400640800000008B
:100A70000050064084000000006006408C0000002A
:100A80000040004010000000008005401000000001
:100A900000500040110000000090054011000000CF
:100AA000006000401200000000A00540120000009D
:100AB000007000401300000000B00540130000006B
:100AC000004002401400000000C005401400000077
:100AD000005002402E00000000D005402E00000013
:100AE000006002402F00000000E005402F000000E1
:100AF000007002403000000000F0054030000000AF
:100B000000D0034043000000000006404300000006
:100B10000010064044000000002006404500000090
:100B20000030064058000000004006405900000018
:100B3000005006405C0000000060064064000000B9
:100B4000007006406C000000008006406D00000050
:100B5000009006407F0000000040004000800540FB
:100B600000500040009005400060004000A005409B
:100B70000070004000B005400040024000C0054049
:100B80000050024000D005400060024000E00540F7
:100B90000070024000F0054000D003400000064015
:100BA00000100640001006400020064000200640CD
:100BB000003006400030064000400640004006403D
:100BC00000500640005006400060064000600640AD
:100BD000007006400070064000800640008006401D
:100BE0000090064000900640080C00000000002025
:100BF00004000000640900000C0C00000400002048
:0C0C000004010000740900000000000066
:040000050000026D88
:00000001FF
