:020000040000FA
:10000000000100206D020000810200008302000058
:10001000850200008502000085020000000000004B
:100020000000000000000000000000008502000049
:10003000850200000000000085020000850200002B
:100040008502000085020000850200008502000094
:100050008502000085020000850200008502000084
:100060008502000085020000850200008502000074
:100070008502000085020000850200008502000064
:100080008502000085020000850200008502000054
:100090008502000085020000850200008502000044
:1000A0008502000085020000850200008502000034
:1000B0008502000085020000850200008502000024
:1000C0008502000085020000850200008502000014
:1000D0008502000085020000850200008502000004
:1000E0008502000000000000000000008502000002
:1000F00085020000850200008502000085020000E4
:1001000085020000850200008502000085020000D3
:1001100000000000000000008502000085020000D1
:1001200085020000850200008502000085020000B3
:1001300085020000850200008502000085020000A3
:1001400000000000000000000000000000000000AF
:100150008502000085020000850200008502000083
:10016000000000000000000000000000000000008F
:10017000000000000000000000000000000000007F
:10018000000000000000000000000000000000006F
:10019000000000000000000000000000000000005F
:1001A000000000000000000000000000000000004F
:1001B0008502000085020000850200008502000023
:1001C0008502000085020000850200008502000013
:1001D0008502000085020000850200008502000003
:1001E000850200008502000085020000000000007A
:1001F000000000008502000085020000850200006A
:1002000085020000850200000000000000000000E0
:1002100085020000850200008502000085020000C2
:1002200085020000850200008502000085020000B2
:1002300085020000850200008502000085020000A2
:100240008502000085020000850200008502000092
:100250008502000085020000850200008502000082
:100260008502000085020000850200004EF68850DD
:10027000CEF20000016841F47001016000F004B8A2
:10028000FEE7FEE7FEE70000DFF80CD000F00AF81A
:1002900000480047590D0000000100200138FDD141
:1002A00070470000064C074D06E0E06840F001038F
:1002B00094E8070098471034AC42F6D3FFF7E8FF04
:1002C0001C1200002C1200000068C0F300407047B0
:1002D0000A4601F00F0101236FF30F0203FA01F147
:1002E0001143826A114381627047000008B5002102
:1002F0002B48FFF7EDFF00BF2948FFF7E5FF002877
:10030000FAD16A460021264800F084F8009828B106
:100310000098B0F5007F01D200F07EFA0098B0F5A9
:10032000007F0BD90098B0F5C06F07D200F086FAB5
:100330000F2208211B4800F0F3F904E000220821F5
:10034000184800F0EDF90098B0F5C06F0CD940F6F0
:10035000FF210098884207D200F080FA0F22042182
:10036000104800F0DDF904E0002204210D4800F0FF
:10037000D7F90098B0F5306F0CD340F6FF710098B4
:10038000884207D200F07AFA0F220221054800F0D5
:10039000C7F904E000220221024800F0C1F908BDBB
:1003A0000080034000500240826B22F003021143A0
:1003B0008163704730B4446989004FF00F0C0CFA28
:1003C00001FC02F00F0524EA0C048D402C4344612B
:1003D000046A03F0030324EA0C0C03FA01F14CEA6B
:1003E0000101016202F00F018B1F032B84BF30BC9F
:1003F0007047C900C3694FF0300C30390CFA01FC6A
:1004000002F0300223EA0C0302FA01F11943C16140
:1004100030BC704700EB411000F14001002003E0C8
:100420008B6842F8043B401CCB6813F4807F18BFF4
:1004300070470828F4D370470268012303FA01F1DA
:1004400022EA0101016070470268012303FA01F109
:1004500011430160704710B400EB4110910050F857
:1004600040CF0F228A4003F00F042CEA020C8C408C
:100470004CEA040CC0F800C0D0F818C0C3F3032441
:100480002CEA020C8C404CEA040CC0F818C0D0F8DE
:1004900004C0C3F303142CEA020C8C404CEA040C95
:1004A000C0F804C0D0F81CC0C3F303542CEA020CFB
:1004B0008C404CEA040CC0F81CC013F4702F4FF0B1
:1004C00001040DD0D0F814C0C3F302432CEA020299
:1004D0008B401A434261026904FA01F1114304E0BE
:1004E000026904FA01F122EA0101016110BC7047BE
:1004F000D0F8003412F0010F14BF0B438B43C0F847
:10050000003412F0020FD0F8202414BF114322EA65
:100510000101C0F8201470472DE9F00301264FF0C7
:10052000000C0325C2F3411706FA0CF40C4211D05B
:10053000D0F8C48F4FEA4C0405FA04F928EA0908F8
:10054000C0F8C48FD0F8C48F07FA04F448EA040452
:10055000C0F8C44F0CF1010C0CF0FF0CBCF1080FFB
:10056000E2D3D0F800C512F0010F14BF4CEA010C21
:100570002CEA010CC0F800C5D0F804C512F0020F37
:1005800014BF4CEA010C2CEA010CC0F804C5D0F8E9
:1005900008C512F0040F14BF4CEA010C2CEA010C40
:1005A000C0F808C5D0F818C512F0080F14BF4CEAFF
:1005B000010C2CEA010CC0F818C512F0100FD0F88D
:1005C0003C2514BF0A438A43C0F83C25D0F80C25CB
:1005D00013F0010F14BF0A438A43C0F80C25D0F86A
:1005E000102513F0020F14BF0A438A43C0F81025E8
:1005F000D0F8142513F0040F14BF0A438A43C0F83F
:100600001425D0F81C2513F0080F14BF0A438A43A1
:10061000C0F81C25D0F8442513F4007F14BF0A430A
:100620008A43C0F84425D0F8402513F4407F14BF16
:100630000A438A43C0F84025D0F82825002B0CBF78
:10064000114322EA0101C0F82815BDE8F003704704
:100650000E4AC0F30741D26E01238B401A420C4A66
:100660001ABF02EBC101496852F83110020AD1F8F1
:100670002C354FF00F0C0CFA02FC00F00F0023EAAF
:100680000C0390401843C1F82C05704700E00F4060
:10069000380F000030B50C4605460022FFF728FF52
:1006A00021462846BDE8304000230122FFF734BF31
:1006B00030B50C4605460022FFF71AFF21462846B2
:1006C000BDE8304008230122FFF726BF30B50C46B5
:1006D000054608230122FFF71FFF21462846BDE8F3
:1006E00030400122FFF704BF30B50C460546022218
:1006F000FFF7FEFE21462846BDE8304008230122D0
:10070000FFF70ABF30B50C4605460222FFF7F0FEA0
:1007100021462846BDE8304008230122FFF7FCBEF1
:1007200040F821207047000010B51A4800F064FA24
:100730001848401E00F060FA1648401F00F05CFAAE
:1007400002211548FFF7C2FF04211348FFF7BEFF3F
:1007500008211148FFF7BAFF01210F48FFF7A8FF52
:1007600010210D48FFF7A4FF0C480D490860012037
:10077000091D08600020091F086000221121064899
:10078000FFF7B6FE0A23012211210348FFF7C4FE3A
:1007900010BD0000050800F0005002404B434F4CD4
:1007A00020550240084401686FF352011143016073
:1007B00012F0020F14BFB0218C21016214BF4FF45C
:1007C000306140F60C0141627047425842F001022C
:1007D000425070470844016811F0020F14BF5108DD
:1007E000511E01617047002A826814BF114322EA3A
:1007F00001018160704721F03F031844036813F042
:10080000020F18BF520803699A1A11F0010F14BFA2
:10081000C26182617047000010B5054AC0210548D9
:10082000FFF7D8FF044AC5210248FFF7E4FF10BDD7
:1008300090D003000080024048E8010010B540F26B
:10084000E242C0210448FFF7C5FF40F27122C521F2
:100850000148FFF7D0FF10BD0080024010B540F204
:100860004232C0210448FFF7B5FF40F2A112C52172
:100870000148FFF7C0FF10BD0080024010B540F2F4
:100880007222C0210448FFF7A5FF40F23912C521AA
:100890000148FFF7B0FF10BD0080024010B500F026
:1008A0002DF8144800F0A8F900BF124800F0B8F97C
:1008B0000028FAD000211048FFF776FD00210E48ED
:1008C000FFF7BAFD00231A4619460B48FFF772FDE1
:1008D0002223002211460848FFF7BDFD00BF00BFDC
:1008E00000BF00210448FFF7AFFD00BF00BF00BFFD
:1008F00010BD0000003800F00080034010B5022158
:100900000148FFF7C7FE10BD0040024010B54FF48C
:10091000D01000F067F9114800F06EF9104800F0AF
:100920006BF900BF0E4800F07BF90028FAD00D48A3
:10093000FFF78EFE20210C48FFF7D6FE0022C021D3
:100940000A48FFF72FFFC0210848FFF73EFF0122AA
:1009500020210648FFF747FF10BD0000040800F003
:10096000004000F0041404000040024000800240F7
:1009700070B44B4D2A6E296F11F0004F14BF01F077
:10098000700002F03000202808BF464818D005DC6F
:1009900088B1102808BF444812D009E0302808BFA9
:1009A00047F230500CD0702808BF4FF4004007D0F9
:1009B00070BC002070477C203C4B00EA1210185895
:1009C0004FF0FF3311F0004F02D011F4006F06D04A
:1009D00001F0004C02F400645CEA040C36D1D5F856
:1009E00060C1D5F8644104F01F06C4F30424641CFC
:1009F000761C16FB04F46400B0FBF4F0CCF309049D
:100A00004443CCF3892C00FB0CF0D5F810C004EB68
:100A1000902042F480020CF4704CBCF5804F08BF6B
:100A2000234B13D009DCBCF5005F08BF214B0DD070
:100A3000BCF5405F08BF204B08E0BCF5E04F08BFA5
:100A40001E4B03D0BCF5104F08BF1D4B12F4800F96
:100A500021D011F0004F19D011F0804F09D011F4BE
:100A6000006F0CD001F0004C02F400625CEA02025C
:100A700005D0C1F3C551491CB0FBF1F00BE04000BB
:100A8000C1F38651491CB0FBF1F004E0C2F3C3513D
:100A9000491CB0FBF1F0834238BF184670BC704768
:100AA00000E00F4000093D000024F400D00F0000DA
:100AB000005A620200B4C40480F0FA0240787D015A
:100AC000002D3101434B30B4196E1A6F21F48001AF
:100AD00041F4006142F4006419661C6721EA0002D7
:100AE00012F0010F14D060F0010211409A159A65BE
:100AF0001966D3F850C0D2021CF4807F08D1521E70
:100B000004BF30BC7047D3F850C01CF4807FF6D0CF
:100B100021F4FE6100F4FE621143DFF8BCC024F052
:100B2000700222F0004200EA0C0C4CEA020200F0D3
:100B3000080C42EACC0219661A6700F4005C21F442
:100B4000005122F400524CEA01014CEA02024FF03B
:100B5000400CC3F858C012F0004F08BF19661A675E
:100B600018BF196621F00101DFF870C021F0F861AB
:100B700000EA0C0C4CEA010122F0FC5200F0FC5C93
:100B80004CEA020210F0804F08BF22F0804209D0E8
:100B9000DFF84CC022F4800200EA0C0C41F4800122
:100BA0004CEA020210F4006F08BF4FF400400AD173
:100BB000D3F868C11CF0010F01D1401EF8D121F417
:100BC000006122F4006219661A6730BC1020FFF73A
:100BD00065BB000000E00F40300000800100C0074E
:100BE0000000404003490A6E22F4F01210430866E8
:100BF0007047000000E00F40C0F307230749C0B270
:100C0000194401F07043C1F3130143EA411141EA71
:100C1000800040F0007001220260704700E60F4043
:100C2000C0F307220849C0B2114401F07042C1F379
:100C3000130142EA411141EA800040F0007000686F
:100C4000002818BF0120704700EA0F40C0F30723B7
:100C50000C49C0B2194401F07043C1F3130143EAD7
:100C6000411141EA800040F0007181B001220A6028
:100C7000002200920098401C00901028FAD30A60CD
:100C800001B0704700E50F40D0F818C01CF0080F05
:100C9000FAD1D0F82CC02CF0100CC0F82CC0D0F831
:100CA00030C02CF0010C2CF4407CC0F830C0D0F8DF
:100CB00030C0B1EB021F34BF4CF0200C2CF0200CE4
:100CC000C0F830C038BF5208C900B1FBF2F1491C6E
:100CD00049088A09426201F03F018162C362002132
:100CE0008161C16A41F01001C162016B40F20132C1
:100CF000114301637047000010B50D48FFF77CFFFA
:100D000003214FF04020FFF7FDFC0120FFF7A0FC7E
:100D100040F20140FFF79CFCFFF72AFE04466023E7
:100D20004FF4164221460348FFF7AEFF10BD000006
:100D3000001800F000C0004002E008C8121F08C1FF
:100D4000002AFAD170477047002001E001C1121F4C
:100D5000002AFBD1704700000E48FFF7B3FE0E4893
:100D6000FFF74AFF0C48FFF771FFFFF7DDFCFFF7C5
:100D7000C3FFFFF7C3FDFFF791FDFFF7C7FD00BFFE
:100D80000648FFF74DFF0028FAD001E0FFF7AEFA62
:100D9000FCE70000403D8007003800F0040800F048
:100DA00000400040100000000080054010000000DE
:100DB00000500040110000000090054011000000AC
:100DC000006000401200000000A00540120000007A
:100DD000007000401300000000B005401300000048
:100DE000004002401400000000C005401400000054
:100DF000005002402E00000000D005402E000000F0
:100E0000006002402F00000000E005402F000000BD
:100E1000007002403000000000F00540300000008B
:100E200000D00340460000000000064046000000DD
:100E30000010064047000000002006404800000067
:100E4000003006407F0000000040064080000000A7
:100E50000050064084000000006006408C00000046
:100E6000004000401000000000800540100000001D
:100E700000500040110000000090054011000000EB
:100E8000006000401200000000A0054012000000B9
:100E9000007000401300000000B005401300000087
:100EA000004002401400000000C005401400000093
:100EB000005002402E00000000D005402E0000002F
:100EC000006002402F00000000E005402F000000FD
:100ED000007002403000000000F0054030000000CB
:100EE00000D0034043000000000006404300000023
:100EF00000100640440000000020064045000000AD
:100F00000030064058000000004006405900000034
:100F1000005006405C0000000060064064000000D5
:100F2000007006406C000000008006406D0000006C
:100F3000009006407F000000004000400080054017
:100F400000500040009005400060004000A00540B7
:100F50000070004000B005400040024000C0054065
:100F60000050024000D005400060024000E0054013
:100F70000070024000F0054000D003400000064031
:100F800000100640001006400020064000200640E9
:100F90000030064000300640004006400040064059
:100FA00000500640005006400060064000600640C9
:100FB0000070064000700640008006400080064039
:100FC000009006400090064000688909001C4E0E03
:100FD00040420F0000201C0080841E00008025007D
:100FE000999E36000040380000093D0000803E0018
:100FF00000004B00404B4C0000204E00808D5B00F9
:1010000000C05D000080700000127A0000007D00CA
:1010100080969800001BB7000080BB00C0E8CE009F
:10102000647ADA000024F4000000FA0080A81201BB
:10103000002D310100366E0140787D014000000036
:1010400000000000000100003E0008000000000059
:1010500000010000A00000000200000000010000EC
:101060003454010000000000000100002B70060055
:101070000000000000010000280000000000000047
:101080000001000027000100000000000001000036
:1010900020000000000000000001000050000000DF
:1010A00002000000000100001AAC00000000000077
:1010B000000100001794090000000000000100007A
:1010C0001698050000000000000100001400000058
:1010D0000000000000010000138008000000000074
:1010E00000010000A0000000080000000001000056
:1010F00010000000000000000001000028000000B7
:101100000200000000010000400000000400000098
:10111000000100006000000000000000000100006D
:101120005D000C0000000000000100005000000005
:1011300000000000000100004E000200000000005E
:101140000001000041AC01000000000000010000AF
:101150003C00000000000000000100003A8009008F
:10116000000000000001000030000000000000004E
:101170000001000028000000000000000001000045
:1011800027000100000000000001000023600600AD
:1011900000000000000100002160080000000000C5
:1011A000000100001E00000000000000000100001F
:1011B0001DC00400000000000001000050000000FD
:1011C0000200000000010000180000000000000004
:1011D00000010000140000000000000000010000F9
:1011E0006000000004000000000100000024F40082
:1011F00030003000005A6202910091000087930392
:10120000D200D20000B4C4041301130100E1F505BB
:1012100054015401000E2707950195012C1200007E
:0C1220000000002000010000480D00004C
:040000050000026D88
:00000001FF
