:020000040000FA
:10000000080100206D020000810200008302000050
:10001000850200008502000085020000000000004B
:100020000000000000000000000000008502000049
:10003000850200000000000085020000850200002B
:100040008502000085020000850200008502000094
:100050008502000085020000850200008502000084
:100060008502000085020000850200008502000074
:100070008502000085020000850200008502000064
:100080008502000085020000850200008502000054
:100090008502000085020000850200008502000044
:1000A0008502000085020000850200008502000034
:1000B0008502000085020000850200008502000024
:1000C0008502000085020000850200008502000014
:1000D0008502000085020000850200008502000004
:1000E0008502000000000000000000008502000002
:1000F00085020000850200008502000085020000E4
:1001000085020000850200008502000085020000D3
:1001100000000000000000008502000085020000D1
:1001200085020000850200008502000085020000B3
:1001300085020000850200008502000085020000A3
:1001400000000000000000000000000000000000AF
:100150008502000085020000850200008502000083
:10016000000000000000000000000000000000008F
:10017000000000000000000000000000000000007F
:10018000000000000000000000000000000000006F
:10019000000000000000000000000000000000005F
:1001A000000000000000000000000000000000004F
:1001B0008502000085020000850200008502000023
:1001C0008502000085020000850200008502000013
:1001D0008502000085020000850200008502000003
:1001E000850200008502000085020000000000007A
:1001F000000000008502000085020000850200006A
:1002000085020000850200000000000000000000E0
:1002100085020000850200008502000085020000C2
:1002200085020000850200008502000085020000B2
:1002300085020000850200008502000085020000A2
:100240008502000085020000850200008502000092
:100250008502000085020000850200008502000082
:100260008502000085020000850200004EF68850DD
:10027000CEF20000016841F47001016000F004B8A2
:10028000FEE7FEE7FEE70000DFF80CD000F00AF81A
:1002900000480047BD090000080100200138FDD1D9
:1002A00070470000064C074D06E0E06840F001038F
:1002B00094E8070098471034AC42F6D3FFF7E8FF04
:1002C000980E0000B80E0000D0F8003412F0010FB4
:1002D00014BF0B438B43C0F8003412F0020FD0F868
:1002E000202414BF114322EA0101C0F820147047F2
:1002F0002DE9F00301264FF0000C0325C2F341174E
:1003000006FA0CF40C4211D0D0F8C48F4FEA4C041A
:1003100005FA04F928EA0908C0F8C48FD0F8C48F98
:1003200007FA04F448EA0404C0F8C44F0CF1010CC5
:100330000CF0FF0CBCF1080FE2D3D0F800C512F0AE
:10034000010F14BF4CEA010C2CEA010CC0F800C5E7
:10035000D0F804C512F0020F14BF4CEA010C2CEACD
:10036000010CC0F804C5D0F808C512F0040F14BF82
:100370004CEA010C2CEA010CC0F808C5D0F818C5ED
:1003800012F0080F14BF4CEA010C2CEA010CC0F863
:1003900018C512F0100FD0F83C2514BF0A438A4349
:1003A000C0F83C25D0F80C2513F0010F14BF0A4308
:1003B0008A43C0F80C25D0F8102513F0020F14BFA3
:1003C0000A438A43C0F81025D0F8142513F0040F0F
:1003D00014BF0A438A43C0F81425D0F81C2513F033
:1003E000080F14BF0A438A43C0F81C25D0F84425DF
:1003F00013F4007F14BF0A438A43C0F84425D0F8A1
:10040000402513F4407F14BF0A438A43C0F84025B7
:10041000D0F82825002B0CBF114322EA0101C0F8B7
:100420002815BDE8F00370470E4AC0F30741D26EAD
:1004300001238B401A420C4A1ABF02EBC1014968E2
:1004400052F83110020AD1F82C354FF00F0C0CFA8B
:1004500002FC00F00F0023EA0C0390401843C1F89F
:100460002C05704700E00F40B40B000050F821004D
:10047000704730B50C4605460022FFF725FF2146A0
:100480002846BDE8304008230122FFF731BF30B5D0
:100490000C46054608230122FFF72AFF214628467D
:1004A000BDE830400122FFF70FBF30B50C460546CE
:1004B0000222FFF709FF21462846BDE83040082305
:1004C0000122FFF715BF40F82120704710B51648EC
:1004D00000F0FAF9154C02212046FFF7D8FF04215D
:1004E0002046FFF7D4FF08212046FFF7D0FF012167
:1004F0002046FFF7BEFF10212046FFF7BAFF0D4947
:100500000B4808600122081D0260002008600246B6
:1005100011212046FFF7D8FE20460A230122BDE81C
:1005200010401121FFF7E4BE050800F00050024022
:100530004B434F4C20550240084401686FF3520171
:100540001143016012F0020F14BFB0218C2101622F
:1005500014BF4FF4306140F60C01416270474258BD
:1005600042F00102425070470844016811F0020F46
:1005700014BF5108511E01617047002A826814BFE0
:10058000114322EA01018160704721F03F031844C2
:10059000036813F0020F18BF520803699A1A11F08A
:1005A000010F14BFC26182617047000070B5002066
:1005B00000F080F91D4800F087F91D4800F084F92B
:1005C00000F03EF8C821B0FBF1F41A48FFF72CFF09
:1005D00020211948FFF769FF184D0022C021284645
:1005E000FFF7AAFFAE15002231462846FFF7A4FF09
:1005F0002246C0212846FFF7B7FF2246314628464B
:10060000FFF7B2FF2246C5212846FFF7BEFFC021F3
:100610002846FFF7A4FF31462846FFF7A0FF2846EB
:10062000BDE8704001222021FFF7A7BF040800F0B9
:10063000004000F00414040000400240009002401A
:1006400070B44B4D2A6E296F11F0004F14BF01F0AA
:10065000700002F03000202808BF464818D005DCA2
:1006600088B1102808BF444812D009E0302808BFDC
:1006700047F230500CD0702808BF4FF4004007D02C
:1006800070BC002070477C203C4B00EA12101858C8
:100690004FF0FF3311F0004F02D011F4006F06D07D
:1006A00001F0004C02F400645CEA040C36D1D5F889
:1006B00060C1D5F8644104F01F06C4F30424641C2F
:1006C000761C16FB04F46400B0FBF4F0CCF30904D0
:1006D0004443CCF3892C00FB0CF0D5F810C004EB9C
:1006E000902042F480020CF4704CBCF5804F08BF9F
:1006F000234B13D009DCBCF5005F08BF214B0DD0A4
:10070000BCF5405F08BF204B08E0BCF5E04F08BFD8
:100710001E4B03D0BCF5104F08BF1D4B12F4800FC9
:1007200021D011F0004F19D011F0804F09D011F4F1
:10073000006F0CD001F0004C02F400625CEA02028F
:1007400005D0C1F3C551491CB0FBF1F00BE04000EE
:10075000C1F38651491CB0FBF1F004E0C2F3C35170
:10076000491CB0FBF1F0834238BF184670BC70479B
:1007700000E00F4000093D000024F4004C0C000094
:10078000005A620200B4C40480F0FA0240787D018D
:10079000002D3101434B30B4196E1A6F21F48001E2
:1007A00041F4006142F4006419661C6721EA00020A
:1007B00012F0010F14D060F0010211409A159A65F1
:1007C0001966D3F850C0D2021CF4807F08D1521EA3
:1007D00004BF30BC7047D3F850C01CF4807FF6D003
:1007E00021F4FE6100F4FE621143DFF8BCC024F086
:1007F000700222F0004200EA0C0C4CEA020200F007
:10080000080C42EACC0219661A6700F4005C21F475
:10081000005122F400524CEA01014CEA02024FF06E
:10082000400CC3F858C012F0004F08BF19661A6791
:1008300018BF196621F00101DFF870C021F0F861DE
:1008400000EA0C0C4CEA010122F0FC5200F0FC5CC6
:100850004CEA020210F0804F08BF22F0804209D01B
:10086000DFF84CC022F4800200EA0C0C41F4800155
:100870004CEA020210F4006F08BF4FF400400AD1A6
:10088000D3F868C11CF0010F01D1401EF8D121F44A
:10089000006122F4006219661A6730BC1020FFF76D
:1008A000FDBC000000E00F40300000800100C007E8
:1008B0000000404003490A6E22F4F012104308661B
:1008C0007047000000E00F40C0F307230749C0B2A3
:1008D000194401F07043C1F3130143EA411141EAA5
:1008E000800040F0007001220260704700E60F4077
:1008F000C0F307220849C0B2114401F07042C1F3AD
:10090000130142EA411141EA800040F000700068A2
:10091000002818BF0120704700EA0F40C0F30723EA
:100920000C49C0B2194401F07043C1F3130143EA0A
:10093000411141EA800040F0007181B001220A605B
:10094000002200920098401C00901028FAD30A6000
:1009500001B0704700E50F402DE9F0410D4F102127
:100960003846FFF783FD0C4C10F0FF0F4FF00005E9
:100970004FF0010601D0257000E0267001213846B5
:10098000FFF774FD10F0FF0F02D06570BDE8F08135
:100990006670FBE7005002400000002002E008C83B
:1009A000121F08C1002AFAD170477047002001E0E9
:1009B00001C1121F002AFBD1704700001348FFF746
:1009C000E9FE134C2046FFF77FFF2046FFF7A6FF06
:1009D000FFF77CFD0F4D104C2846FFF789FF0028DC
:1009E000FAD0FFF7B9FF01212046FFF73FFD38B1EC
:1009F000002208212046FFF766FDFFF7D7FDF0E74C
:100A0000082211462046FFF75EFDEAE7403D8007D9
:100A1000003800F0050800F000500240004000409F
:100A20001000000000800540100000000050004051
:100A3000110000000090054011000000006000401F
:100A40001200000000A005401200000000700040ED
:100A50001300000000B005401300000000400240F9
:100A60001400000000C005401400000000500240C7
:100A70002E00000000D005402E0000000060024063
:100A80002F00000000E005402F0000000070024031
:100A90003000000000F005403000000000D00340AE
:100AA000460000000000064046000000001006401E
:100AB00047000000002006404800000000300640CB
:100AC0007F0000000040064080000000005006400B
:100AD00084000000006006408C00000000400040E0
:100AE0001000000000800540100000000050004091
:100AF000110000000090054011000000006000405F
:100B00001200000000A0054012000000007000402C
:100B10001300000000B00540130000000040024038
:100B20001400000000C00540140000000050024006
:100B30002E00000000D005402E00000000600240A2
:100B40002F00000000E005402F0000000070024070
:100B50003000000000F005403000000000D00340ED
:100B60004300000000000640430000000010064063
:100B70004400000000200640450000000030064010
:100B80005800000000400640590000000050064098
:100B90005C00000000600640640000000070064039
:100BA0006C000000008006406D00000000900640D0
:100BB0007F000000004000400080054000500040E1
:100BC000009005400060004000A00540007000401B
:100BD00000B005400040024000C005400050024007
:100BE00000D005400060024000E005400070024077
:100BF00000F0054000D00340000006400010064011
:100C0000001006400020064000200640003006404C
:100C100000300640004006400040064000500640BC
:100C2000005006400060064000600640007006402C
:100C3000007006400080064000800640009006409C
:100C40000090064000688909001C4E0E40420F00CB
:100C500000201C0080841E0000802500999E360024
:100C60000040380000093D0000803E0000004B00BD
:100C7000404B4C0000204E00808D5B0000C05D00AA
:100C80000080700000127A0000007D0080969800BD
:100C9000001BB7000080BB00C0E8CE00647ADA0019
:100CA0000024F4000000FA0080A81201002D310198
:100CB00000366E0140787D01400000000000000019
:100CC000000100003E0008000000000000010000DC
:100CD000A0000000020000000001000034540100E8
:100CE00000000000000100002B7006000000000062
:100CF00000010000280000000000000000010000CA
:100D0000270001000000000000010000200000009A
:100D10000000000000010000500000000200000080
:100D2000000100001AAC00000000000000010000FB
:100D3000179409000000000000010000169805004B
:100D4000000000000001000014000000000000008E
:100D500000010000138008000000000000010000F6
:100D6000A0000000080000000001000010000000CA
:100D70000000000000010000280000000200000048
:100D8000000100004000000004000000000100001D
:100D90006000000000000000000100005D000C0089
:100DA00000000000000100005000000000000000F2
:100DB000000100004E0002000000000000010000E1
:100DC00041AC010000000000000100003C000000F8
:100DD00000000000000100003A800900000000004F
:100DE00000010000300000000000000000010000D1
:100DF00028000000000000000001000027000100A2
:100E00000000000000010000236006000000000058
:100E10000001000021600800000000000001000047
:100E20001E00000000000000000100001DC00400C2
:100E3000000000000001000050000000020000005F
:100E40000001000018000000000000000001000088
:100E5000140000000000000000010000600000001D
:100E600004000000000100000024F4003000300005
:100E7000005A62029100910000879303D200D200D1
:100E800000B4C4041301130100E1F5055401540139
:100E9000000E270795019501B80E00000000002004
:100EA000040000009C090000BC0E000004000020AB
:0C0EB00004010000AC090000000000007C
:040000050000026D88
:00000001FF
